{
  "contractName": "SaleUtopiaNFTV2",
  "abi": [
    {
      "inputs": [
        {
          "internalType": "contract IUtopia",
          "name": "_utopia",
          "type": "address"
        },
        {
          "internalType": "address",
          "name": "_treasuryAddr",
          "type": "address"
        },
        {
          "internalType": "address",
          "name": "_priceFeedAddress",
          "type": "address"
        },
        {
          "internalType": "uint8",
          "name": "_currentPhaseId",
          "type": "uint8"
        }
      ],
      "stateMutability": "nonpayable",
      "type": "constructor"
    },
    {
      "anonymous": false,
      "inputs": [
        {
          "indexed": true,
          "internalType": "uint256",
          "name": "_priceInUSDPerNFT",
          "type": "uint256"
        },
        {
          "indexed": true,
          "internalType": "uint256",
          "name": "_priceInUSDPerNFTWithoutWhiteList",
          "type": "uint256"
        },
        {
          "indexed": false,
          "internalType": "uint256",
          "name": "_maxTotalSales",
          "type": "uint256"
        },
        {
          "indexed": false,
          "internalType": "uint256",
          "name": "_maxSalesPerWallet",
          "type": "uint256"
        },
        {
          "indexed": false,
          "internalType": "bool",
          "name": "_whiteListRequired",
          "type": "bool"
        },
        {
          "indexed": false,
          "internalType": "bool",
          "name": "_phasePriceInUSD",
          "type": "bool"
        },
        {
          "indexed": false,
          "internalType": "uint256",
          "name": "_priceInWeiPerNFT",
          "type": "uint256"
        },
        {
          "indexed": false,
          "internalType": "uint256",
          "name": "_priceInWeiPerNFTWithoutWhiteList",
          "type": "uint256"
        }
      ],
      "name": "AddPhase",
      "type": "event"
    },
    {
      "anonymous": false,
      "inputs": [
        {
          "indexed": true,
          "internalType": "uint256",
          "name": "quantity",
          "type": "uint256"
        },
        {
          "indexed": true,
          "internalType": "address",
          "name": "to",
          "type": "address"
        }
      ],
      "name": "Buy",
      "type": "event"
    },
    {
      "anonymous": false,
      "inputs": [
        {
          "indexed": true,
          "internalType": "uint256",
          "name": "quantity",
          "type": "uint256"
        },
        {
          "indexed": true,
          "internalType": "address",
          "name": "to",
          "type": "address"
        }
      ],
      "name": "BuyWithCreditCard",
      "type": "event"
    },
    {
      "anonymous": false,
      "inputs": [
        {
          "indexed": true,
          "internalType": "uint8",
          "name": "_phaseId",
          "type": "uint8"
        }
      ],
      "name": "ChangeCurrentPhase",
      "type": "event"
    },
    {
      "anonymous": false,
      "inputs": [
        {
          "indexed": true,
          "internalType": "address",
          "name": "_priceFeedAddress",
          "type": "address"
        }
      ],
      "name": "ChangePriceFeedAddress",
      "type": "event"
    },
    {
      "anonymous": false,
      "inputs": [
        {
          "indexed": true,
          "internalType": "uint8",
          "name": "_phaseId",
          "type": "uint8"
        },
        {
          "indexed": true,
          "internalType": "uint256",
          "name": "_priceInUSDPerNFT",
          "type": "uint256"
        },
        {
          "indexed": false,
          "internalType": "uint256",
          "name": "_priceInUSDPerNFTWithoutWhiteList",
          "type": "uint256"
        },
        {
          "indexed": false,
          "internalType": "uint256",
          "name": "_maxTotalSales",
          "type": "uint256"
        },
        {
          "indexed": false,
          "internalType": "uint256",
          "name": "_maxSalesPerWallet",
          "type": "uint256"
        },
        {
          "indexed": false,
          "internalType": "bool",
          "name": "_whiteListRequired",
          "type": "bool"
        },
        {
          "indexed": false,
          "internalType": "bool",
          "name": "_phasePriceInUSD",
          "type": "bool"
        },
        {
          "indexed": false,
          "internalType": "uint256",
          "name": "_priceInWeiPerNFT",
          "type": "uint256"
        },
        {
          "indexed": false,
          "internalType": "uint256",
          "name": "_priceInWeiPerNFTWithoutWhiteList",
          "type": "uint256"
        }
      ],
      "name": "EditPhase",
      "type": "event"
    },
    {
      "anonymous": false,
      "inputs": [
        {
          "indexed": true,
          "internalType": "address",
          "name": "previousOwner",
          "type": "address"
        },
        {
          "indexed": true,
          "internalType": "address",
          "name": "newOwner",
          "type": "address"
        }
      ],
      "name": "OwnershipTransferred",
      "type": "event"
    },
    {
      "inputs": [],
      "name": "allowlistMerkleRoot",
      "outputs": [
        {
          "internalType": "bytes32",
          "name": "",
          "type": "bytes32"
        }
      ],
      "stateMutability": "view",
      "type": "function",
      "constant": true
    },
    {
      "inputs": [],
      "name": "currentPhaseId",
      "outputs": [
        {
          "internalType": "uint8",
          "name": "",
          "type": "uint8"
        }
      ],
      "stateMutability": "view",
      "type": "function",
      "constant": true
    },
    {
      "inputs": [],
      "name": "owner",
      "outputs": [
        {
          "internalType": "address",
          "name": "",
          "type": "address"
        }
      ],
      "stateMutability": "view",
      "type": "function",
      "constant": true
    },
    {
      "inputs": [
        {
          "internalType": "uint256",
          "name": "",
          "type": "uint256"
        }
      ],
      "name": "phasesInfo",
      "outputs": [
        {
          "internalType": "uint256",
          "name": "priceInUSDPerNFT",
          "type": "uint256"
        },
        {
          "internalType": "uint256",
          "name": "priceInUSDPerNFTWithoutWhiteList",
          "type": "uint256"
        },
        {
          "internalType": "uint256",
          "name": "maxTotalSales",
          "type": "uint256"
        },
        {
          "internalType": "uint256",
          "name": "maxSalesPerWallet",
          "type": "uint256"
        },
        {
          "internalType": "bool",
          "name": "whiteListRequired",
          "type": "bool"
        },
        {
          "internalType": "bool",
          "name": "phasePriceInUSD",
          "type": "bool"
        },
        {
          "internalType": "uint256",
          "name": "priceInWeiPerNFT",
          "type": "uint256"
        },
        {
          "internalType": "uint256",
          "name": "priceInWeiPerNFTWithoutWhiteList",
          "type": "uint256"
        }
      ],
      "stateMutability": "view",
      "type": "function",
      "constant": true
    },
    {
      "inputs": [
        {
          "internalType": "uint256",
          "name": "",
          "type": "uint256"
        }
      ],
      "name": "phasesTotalSales",
      "outputs": [
        {
          "internalType": "uint256",
          "name": "",
          "type": "uint256"
        }
      ],
      "stateMutability": "view",
      "type": "function",
      "constant": true
    },
    {
      "inputs": [
        {
          "internalType": "uint256",
          "name": "",
          "type": "uint256"
        },
        {
          "internalType": "address",
          "name": "",
          "type": "address"
        }
      ],
      "name": "phasesWalletSales",
      "outputs": [
        {
          "internalType": "uint256",
          "name": "",
          "type": "uint256"
        }
      ],
      "stateMutability": "view",
      "type": "function",
      "constant": true
    },
    {
      "inputs": [],
      "name": "renounceOwnership",
      "outputs": [],
      "stateMutability": "nonpayable",
      "type": "function"
    },
    {
      "inputs": [
        {
          "internalType": "address",
          "name": "newOwner",
          "type": "address"
        }
      ],
      "name": "transferOwnership",
      "outputs": [],
      "stateMutability": "nonpayable",
      "type": "function"
    },
    {
      "inputs": [],
      "name": "treasuryAddr",
      "outputs": [
        {
          "internalType": "address",
          "name": "",
          "type": "address"
        }
      ],
      "stateMutability": "view",
      "type": "function",
      "constant": true
    },
    {
      "inputs": [],
      "name": "utopia",
      "outputs": [
        {
          "internalType": "contract IUtopia",
          "name": "",
          "type": "address"
        }
      ],
      "stateMutability": "view",
      "type": "function",
      "constant": true
    },
    {
      "inputs": [
        {
          "internalType": "address",
          "name": "",
          "type": "address"
        },
        {
          "internalType": "address",
          "name": "",
          "type": "address"
        },
        {
          "internalType": "uint256",
          "name": "",
          "type": "uint256"
        },
        {
          "internalType": "bytes",
          "name": "",
          "type": "bytes"
        }
      ],
      "name": "onERC721Received",
      "outputs": [
        {
          "internalType": "bytes4",
          "name": "",
          "type": "bytes4"
        }
      ],
      "stateMutability": "nonpayable",
      "type": "function"
    },
    {
      "inputs": [
        {
          "internalType": "uint8",
          "name": "_currentPhaseId",
          "type": "uint8"
        }
      ],
      "name": "setCurrentPhase",
      "outputs": [],
      "stateMutability": "nonpayable",
      "type": "function"
    },
    {
      "inputs": [
        {
          "internalType": "address",
          "name": "_priceFeedAddress",
          "type": "address"
        }
      ],
      "name": "changePriceFeedAddress",
      "outputs": [],
      "stateMutability": "nonpayable",
      "type": "function"
    },
    {
      "inputs": [
        {
          "internalType": "uint256",
          "name": "_priceInUSDPerNFT",
          "type": "uint256"
        },
        {
          "internalType": "uint256",
          "name": "_priceInUSDPerNFTWithoutWhiteList",
          "type": "uint256"
        },
        {
          "internalType": "uint256",
          "name": "_maxTotalSales",
          "type": "uint256"
        },
        {
          "internalType": "uint256",
          "name": "_maxSalesPerWallet",
          "type": "uint256"
        },
        {
          "internalType": "bool",
          "name": "_whiteListRequired",
          "type": "bool"
        },
        {
          "internalType": "bool",
          "name": "_phasePriceInUSD",
          "type": "bool"
        },
        {
          "internalType": "uint256",
          "name": "_priceInWeiPerNFT",
          "type": "uint256"
        },
        {
          "internalType": "uint256",
          "name": "_priceInWeiPerNFTWithoutWhiteList",
          "type": "uint256"
        }
      ],
      "name": "addPhase",
      "outputs": [],
      "stateMutability": "nonpayable",
      "type": "function"
    },
    {
      "inputs": [
        {
          "internalType": "uint8",
          "name": "_phaseId",
          "type": "uint8"
        },
        {
          "internalType": "uint256",
          "name": "_priceInUSDPerNFT",
          "type": "uint256"
        },
        {
          "internalType": "uint256",
          "name": "_priceInUSDPerNFTWithoutWhiteList",
          "type": "uint256"
        },
        {
          "internalType": "uint256",
          "name": "_maxTotalSales",
          "type": "uint256"
        },
        {
          "internalType": "uint256",
          "name": "_maxSalesPerWallet",
          "type": "uint256"
        },
        {
          "internalType": "bool",
          "name": "_whiteListRequired",
          "type": "bool"
        },
        {
          "internalType": "bool",
          "name": "_phasePriceInUSD",
          "type": "bool"
        },
        {
          "internalType": "uint256",
          "name": "_priceInWeiPerNFT",
          "type": "uint256"
        },
        {
          "internalType": "uint256",
          "name": "_priceInWeiPerNFTWithoutWhiteList",
          "type": "uint256"
        }
      ],
      "name": "editPhase",
      "outputs": [],
      "stateMutability": "nonpayable",
      "type": "function"
    },
    {
      "inputs": [],
      "name": "getLatestPrice",
      "outputs": [
        {
          "internalType": "int256",
          "name": "",
          "type": "int256"
        }
      ],
      "stateMutability": "view",
      "type": "function",
      "constant": true
    },
    {
      "inputs": [
        {
          "internalType": "bytes32",
          "name": "_allowlistMerkleRoot",
          "type": "bytes32"
        }
      ],
      "name": "setAllowlistMerkleRoot",
      "outputs": [],
      "stateMutability": "nonpayable",
      "type": "function"
    },
    {
      "inputs": [
        {
          "internalType": "uint256",
          "name": "_quantity",
          "type": "uint256"
        },
        {
          "internalType": "address",
          "name": "_to",
          "type": "address"
        },
        {
          "internalType": "bytes32[]",
          "name": "_merkleProof",
          "type": "bytes32[]"
        }
      ],
      "name": "buyWithCreditCard",
      "outputs": [],
      "stateMutability": "nonpayable",
      "type": "function"
    },
    {
      "inputs": [
        {
          "internalType": "uint256",
          "name": "_quantity",
          "type": "uint256"
        },
        {
          "internalType": "address",
          "name": "_to",
          "type": "address"
        },
        {
          "internalType": "bytes32[]",
          "name": "_merkleProof",
          "type": "bytes32[]"
        }
      ],
      "name": "buy",
      "outputs": [],
      "stateMutability": "payable",
      "type": "function",
      "payable": true
    },
    {
      "inputs": [
        {
          "internalType": "address",
          "name": "_treasuryAddr",
          "type": "address"
        }
      ],
      "name": "setTreasury",
      "outputs": [],
      "stateMutability": "nonpayable",
      "type": "function"
    },
    {
      "inputs": [],
      "name": "withdrawMoney",
      "outputs": [],
      "stateMutability": "nonpayable",
      "type": "function"
    },
    {
      "inputs": [
        {
          "internalType": "uint256[]",
          "name": "tokensId",
          "type": "uint256[]"
        },
        {
          "internalType": "address[]",
          "name": "addresses",
          "type": "address[]"
        }
      ],
      "name": "transferGuardedNfts",
      "outputs": [],
      "stateMutability": "nonpayable",
      "type": "function"
    },
    {
      "inputs": [
        {
          "internalType": "address",
          "name": "tokenAddress",
          "type": "address"
        },
        {
          "internalType": "uint256",
          "name": "tokenAmount",
          "type": "uint256"
        }
      ],
      "name": "recoverERC20",
      "outputs": [],
      "stateMutability": "nonpayable",
      "type": "function"
    },
    {
      "inputs": [
        {
          "internalType": "address",
          "name": "nftAddress",
          "type": "address"
        },
        {
          "internalType": "address",
          "name": "from",
          "type": "address"
        },
        {
          "internalType": "address",
          "name": "to",
          "type": "address"
        },
        {
          "internalType": "uint256",
          "name": "tokenId",
          "type": "uint256"
        }
      ],
      "name": "recoverERC721TransferFrom",
      "outputs": [],
      "stateMutability": "nonpayable",
      "type": "function"
    },
    {
      "inputs": [
        {
          "internalType": "address",
          "name": "nftAddress",
          "type": "address"
        },
        {
          "internalType": "address",
          "name": "from",
          "type": "address"
        },
        {
          "internalType": "address",
          "name": "to",
          "type": "address"
        },
        {
          "internalType": "uint256",
          "name": "tokenId",
          "type": "uint256"
        }
      ],
      "name": "recoverERC721SafeTransferFrom",
      "outputs": [],
      "stateMutability": "nonpayable",
      "type": "function"
    }
  ],
  "bytecode": "0x60a06040523480156200001157600080fd5b5060405162003bf538038062003bf583398181016040528101906200003791906200024d565b620000576200004b6200013c60201b60201c565b6200014460201b60201c565b600180819055508373ffffffffffffffffffffffffffffffffffffffff1660808173ffffffffffffffffffffffffffffffffffffffff1660601b8152505082600260006101000a81548173ffffffffffffffffffffffffffffffffffffffff021916908373ffffffffffffffffffffffffffffffffffffffff16021790555081600360006101000a81548173ffffffffffffffffffffffffffffffffffffffff021916908373ffffffffffffffffffffffffffffffffffffffff16021790555080600360146101000a81548160ff021916908360ff160217905550505050506200035c565b600033905090565b60008060009054906101000a900473ffffffffffffffffffffffffffffffffffffffff169050816000806101000a81548173ffffffffffffffffffffffffffffffffffffffff021916908373ffffffffffffffffffffffffffffffffffffffff1602179055508173ffffffffffffffffffffffffffffffffffffffff168173ffffffffffffffffffffffffffffffffffffffff167f8be0079c531659141344cd1fd0a4f28419497f9722a3daafe3b4186f6b6457e060405160405180910390a35050565b60008151905062000219816200030e565b92915050565b600081519050620002308162000328565b92915050565b600081519050620002478162000342565b92915050565b600080600080608085870312156200026457600080fd5b600062000274878288016200021f565b9450506020620002878782880162000208565b93505060406200029a8782880162000208565b9250506060620002ad8782880162000236565b91505092959194509250565b6000620002c682620002e1565b9050919050565b6000620002da82620002b9565b9050919050565b600073ffffffffffffffffffffffffffffffffffffffff82169050919050565b600060ff82169050919050565b6200031981620002b9565b81146200032557600080fd5b50565b6200033381620002cd565b81146200033f57600080fd5b50565b6200034d8162000301565b81146200035957600080fd5b50565b60805160601c61386c6200038960003960008181610f8b015281816112ee0152611e9c015261386c6000f3fe6080604052600436106101665760003560e01c80638da5cb5b116100d1578063cd3f29101161008a578063f0f4426011610064578063f0f4426014610507578063f2fde38b14610530578063f95df41414610559578063fb30f2bf1461058257610166565b8063cd3f29101461048c578063e57f07dc146104b5578063e7e6a2eb146104de57610166565b80638da5cb5b146103a25780638e15f473146103cd5780639d624d83146103f85780639ff8a33914610421578063ac4460021461044a578063b07fd61a1461046157610166565b806330d9a62a1161012357806330d9a62a146102a657806340c5b34e146102d157806363a4e27e146102fc578063715018a614610325578063738d94441461033c5780638980f11f1461037957610166565b8063099d261b1461016b578063150b7a021461019457806315d3acfb146101d15780631edc495c1461020e578063293108e0146102525780632ad3f5701461027d575b600080fd5b34801561017757600080fd5b50610192600480360381019061018d9190612a34565b61059e565b005b3480156101a057600080fd5b506101bb60048036038101906101b6919061269c565b61092b565b6040516101c89190613020565b60405180910390f35b3480156101dd57600080fd5b506101f860048036038101906101f3919061283a565b61093f565b60405161020591906131f3565b60405180910390f35b34801561021a57600080fd5b5061023560048036038101906102309190612811565b610964565b6040516102499897969594939291906132de565b60405180910390f35b34801561025e57600080fd5b506102676109d6565b6040516102749190613005565b60405180910390f35b34801561028957600080fd5b506102a4600480360381019061029f9190612876565b6109dc565b005b3480156102b257600080fd5b506102bb610b05565b6040516102c89190612f8a565b60405180910390f35b3480156102dd57600080fd5b506102e6610b2b565b6040516102f3919061335c565b60405180910390f35b34801561030857600080fd5b50610323600480360381019061031e9190612639565b610b3e565b005b34801561033157600080fd5b5061033a610c2f565b005b34801561034857600080fd5b50610363600480360381019061035e9190612811565b610cb7565b60405161037091906131f3565b60405180910390f35b34801561038557600080fd5b506103a0600480360381019061039b9190612717565b610ccf565b005b3480156103ae57600080fd5b506103b7610de4565b6040516103c49190612f8a565b60405180910390f35b3480156103d957600080fd5b506103e2610e0d565b6040516103ef9190613056565b60405180910390f35b34801561040457600080fd5b5061041f600480360381019061041a9190612753565b610ebd565b005b34801561042d57600080fd5b5061044860048036038101906104439190612639565b6110ae565b005b34801561045657600080fd5b5061045f61119f565b005b34801561046d57600080fd5b506104766112ec565b604051610483919061303b565b60405180910390f35b34801561049857600080fd5b506104b360048036038101906104ae9190612994565b611310565b005b3480156104c157600080fd5b506104dc60048036038101906104d791906128e2565b6113da565b005b3480156104ea57600080fd5b5061050560048036038101906105009190612610565b61158a565b005b34801561051357600080fd5b5061052e60048036038101906105299190612610565b61168d565b005b34801561053c57600080fd5b5061055760048036038101906105529190612610565b61174d565b005b34801561056557600080fd5b50610580600480360381019061057b91906127e8565b611845565b005b61059c60048036038101906105979190612876565b6118cb565b005b6105a6611a42565b73ffffffffffffffffffffffffffffffffffffffff166105c4610de4565b73ffffffffffffffffffffffffffffffffffffffff161461061a576040517f08c379a000000000000000000000000000000000000000000000000000000000815260040161061190613133565b60405180910390fd5b8760048a60ff1681548110610658577f4e487b7100000000000000000000000000000000000000000000000000000000600052603260045260246000fd5b9060005260206000209060070201600001819055508660048a60ff16815481106106ab577f4e487b7100000000000000000000000000000000000000000000000000000000600052603260045260246000fd5b9060005260206000209060070201600101819055508560048a60ff16815481106106fe577f4e487b7100000000000000000000000000000000000000000000000000000000600052603260045260246000fd5b9060005260206000209060070201600201819055508460048a60ff1681548110610751577f4e487b7100000000000000000000000000000000000000000000000000000000600052603260045260246000fd5b9060005260206000209060070201600301819055508360048a60ff16815481106107a4577f4e487b7100000000000000000000000000000000000000000000000000000000600052603260045260246000fd5b906000526020600020906007020160040160006101000a81548160ff0219169083151502179055508260048a60ff168154811061080a577f4e487b7100000000000000000000000000000000000000000000000000000000600052603260045260246000fd5b906000526020600020906007020160040160016101000a81548160ff0219169083151502179055508160048a60ff1681548110610870577f4e487b7100000000000000000000000000000000000000000000000000000000600052603260045260246000fd5b9060005260206000209060070201600501819055508060048a60ff16815481106108c3577f4e487b7100000000000000000000000000000000000000000000000000000000600052603260045260246000fd5b906000526020600020906007020160060181905550878960ff167f9ebb66e8b66a21db302019dcab34f1f6ab83ec3dbe8fed831a726386ebe5f6b289898989898989604051610918979695949392919061326f565b60405180910390a3505050505050505050565b600063150b7a0260e01b9050949350505050565b6006602052816000526040600020602052806000526040600020600091509150505481565b6004818154811061097457600080fd5b90600052602060002090600702016000915090508060000154908060010154908060020154908060030154908060040160009054906101000a900460ff16908060040160019054906101000a900460ff16908060050154908060060154905088565b60075481565b6109e4611a42565b73ffffffffffffffffffffffffffffffffffffffff16610a02610de4565b73ffffffffffffffffffffffffffffffffffffffff1614610a58576040517f08c379a0000000000000000000000000000000000000000000000000000000008152600401610a4f90613133565b60405180910390fd5b60026001541415610a9e576040517f08c379a0000000000000000000000000000000000000000000000000000000008152600401610a95906131d3565b60405180910390fd5b6002600181905550610ab4848460018585611a4a565b8273ffffffffffffffffffffffffffffffffffffffff16847f66fce252103f2018c6e48a00714ea63977ba2985af37d39e9d98ff17fef6986b60405160405180910390a36001808190555050505050565b600260009054906101000a900473ffffffffffffffffffffffffffffffffffffffff1681565b600360149054906101000a900460ff1681565b610b46611a42565b73ffffffffffffffffffffffffffffffffffffffff16610b64610de4565b73ffffffffffffffffffffffffffffffffffffffff1614610bba576040517f08c379a0000000000000000000000000000000000000000000000000000000008152600401610bb190613133565b60405180910390fd5b8373ffffffffffffffffffffffffffffffffffffffff166323b872dd8484846040518463ffffffff1660e01b8152600401610bf793929190612fa5565b600060405180830381600087803b158015610c1157600080fd5b505af1158015610c25573d6000803e3d6000fd5b5050505050505050565b610c37611a42565b73ffffffffffffffffffffffffffffffffffffffff16610c55610de4565b73ffffffffffffffffffffffffffffffffffffffff1614610cab576040517f08c379a0000000000000000000000000000000000000000000000000000000008152600401610ca290613133565b60405180910390fd5b610cb56000611f32565b565b60056020528060005260406000206000915090505481565b610cd7611a42565b73ffffffffffffffffffffffffffffffffffffffff16610cf5610de4565b73ffffffffffffffffffffffffffffffffffffffff1614610d4b576040517f08c379a0000000000000000000000000000000000000000000000000000000008152600401610d4290613133565b60405180910390fd5b8173ffffffffffffffffffffffffffffffffffffffff1663a9059cbb610d6f610de4565b836040518363ffffffff1660e01b8152600401610d8d929190612fdc565b602060405180830381600087803b158015610da757600080fd5b505af1158015610dbb573d6000803e3d6000fd5b505050506040513d601f19601f82011682018060405250810190610ddf91906127bf565b505050565b60008060009054906101000a900473ffffffffffffffffffffffffffffffffffffffff16905090565b600080600360009054906101000a900473ffffffffffffffffffffffffffffffffffffffff1673ffffffffffffffffffffffffffffffffffffffff1663feaf968c6040518163ffffffff1660e01b815260040160a06040518083038186803b158015610e7857600080fd5b505afa158015610e8c573d6000803e3d6000fd5b505050506040513d601f19601f82011682018060405250810190610eb091906129bd565b5050509150508091505090565b610ec5611a42565b73ffffffffffffffffffffffffffffffffffffffff16610ee3610de4565b73ffffffffffffffffffffffffffffffffffffffff1614610f39576040517f08c379a0000000000000000000000000000000000000000000000000000000008152600401610f3090613133565b60405180910390fd5b8151815114610f7d576040517f08c379a0000000000000000000000000000000000000000000000000000000008152600401610f74906130f3565b60405180910390fd5b60005b81518110156110a9577f000000000000000000000000000000000000000000000000000000000000000073ffffffffffffffffffffffffffffffffffffffff166342842e0e30848481518110610fff577f4e487b7100000000000000000000000000000000000000000000000000000000600052603260045260246000fd5b6020026020010151868581518110611040577f4e487b7100000000000000000000000000000000000000000000000000000000600052603260045260246000fd5b60200260200101516040518463ffffffff1660e01b815260040161106693929190612fa5565b600060405180830381600087803b15801561108057600080fd5b505af1158015611094573d6000803e3d6000fd5b50505050806110a29061367d565b9050610f80565b505050565b6110b6611a42565b73ffffffffffffffffffffffffffffffffffffffff166110d4610de4565b73ffffffffffffffffffffffffffffffffffffffff161461112a576040517f08c379a000000000000000000000000000000000000000000000000000000000815260040161112190613133565b60405180910390fd5b8373ffffffffffffffffffffffffffffffffffffffff166342842e0e8484846040518463ffffffff1660e01b815260040161116793929190612fa5565b600060405180830381600087803b15801561118157600080fd5b505af1158015611195573d6000803e3d6000fd5b5050505050505050565b6111a7611a42565b73ffffffffffffffffffffffffffffffffffffffff166111c5610de4565b73ffffffffffffffffffffffffffffffffffffffff161461121b576040517f08c379a000000000000000000000000000000000000000000000000000000000815260040161121290613133565b60405180910390fd5b6000600260009054906101000a900473ffffffffffffffffffffffffffffffffffffffff1673ffffffffffffffffffffffffffffffffffffffff164760405161126390612f75565b60006040518083038185875af1925050503d80600081146112a0576040519150601f19603f3d011682016040523d82523d6000602084013e6112a5565b606091505b50509050806112e9576040517f08c379a00000000000000000000000000000000000000000000000000000000081526004016112e090613173565b60405180910390fd5b50565b7f000000000000000000000000000000000000000000000000000000000000000081565b611318611a42565b73ffffffffffffffffffffffffffffffffffffffff16611336610de4565b73ffffffffffffffffffffffffffffffffffffffff161461138c576040517f08c379a000000000000000000000000000000000000000000000000000000000815260040161138390613133565b60405180910390fd5b80600360146101000a81548160ff021916908360ff1602179055508060ff167fa8fe8cd5872375e077c52c04ac0a9211751fc3e62d48caa2f40e1b02a2c2d3d760405160405180910390a250565b6113e2611a42565b73ffffffffffffffffffffffffffffffffffffffff16611400610de4565b73ffffffffffffffffffffffffffffffffffffffff1614611456576040517f08c379a000000000000000000000000000000000000000000000000000000000815260040161144d90613133565b60405180910390fd5b60046040518061010001604052808a8152602001898152602001888152602001878152602001861515815260200185151581526020018481526020018381525090806001815401808255809150506001900390600052602060002090600702016000909190919091506000820151816000015560208201518160010155604082015181600201556060820151816003015560808201518160040160006101000a81548160ff02191690831515021790555060a08201518160040160016101000a81548160ff02191690831515021790555060c0820151816005015560e08201518160060155505086887f8771904a85379dde0d690735d0ea6f17b168aac2c78a37e436b7ed0959109e348888888888886040516115789695949392919061320e565b60405180910390a35050505050505050565b611592611a42565b73ffffffffffffffffffffffffffffffffffffffff166115b0610de4565b73ffffffffffffffffffffffffffffffffffffffff1614611606576040517f08c379a00000000000000000000000000000000000000000000000000000000081526004016115fd90613133565b60405180910390fd5b80600360006101000a81548173ffffffffffffffffffffffffffffffffffffffff021916908373ffffffffffffffffffffffffffffffffffffffff1602179055508073ffffffffffffffffffffffffffffffffffffffff167f235594dcc482f6d529d8f8b3c0037caf80f0c27bb79ee008559d1378db7efbd060405160405180910390a250565b611695611a42565b73ffffffffffffffffffffffffffffffffffffffff166116b3610de4565b73ffffffffffffffffffffffffffffffffffffffff1614611709576040517f08c379a000000000000000000000000000000000000000000000000000000000815260040161170090613133565b60405180910390fd5b80600260006101000a81548173ffffffffffffffffffffffffffffffffffffffff021916908373ffffffffffffffffffffffffffffffffffffffff16021790555050565b611755611a42565b73ffffffffffffffffffffffffffffffffffffffff16611773610de4565b73ffffffffffffffffffffffffffffffffffffffff16146117c9576040517f08c379a00000000000000000000000000000000000000000000000000000000081526004016117c090613133565b60405180910390fd5b600073ffffffffffffffffffffffffffffffffffffffff168173ffffffffffffffffffffffffffffffffffffffff161415611839576040517f08c379a000000000000000000000000000000000000000000000000000000000815260040161183090613093565b60405180910390fd5b61184281611f32565b50565b61184d611a42565b73ffffffffffffffffffffffffffffffffffffffff1661186b610de4565b73ffffffffffffffffffffffffffffffffffffffff16146118c1576040517f08c379a00000000000000000000000000000000000000000000000000000000081526004016118b890613133565b60405180910390fd5b8060078190555050565b60026001541415611911576040517f08c379a0000000000000000000000000000000000000000000000000000000008152600401611908906131d3565b60405180910390fd5b6002600181905550818160006004600360149054906101000a900460ff1660ff1681548110611969577f4e487b7100000000000000000000000000000000000000000000000000000000600052603260045260246000fd5b906000526020600020906007020190508060040160009054906101000a900460ff16156119e057600061199c8484611ff6565b9050806119de576040517f08c379a00000000000000000000000000000000000000000000000000000000081526004016119d5906131b3565b60405180910390fd5b505b6119ee878760008888611a4a565b8573ffffffffffffffffffffffffffffffffffffffff16877f7534e9c9396820aad756ba27f82162930f80bef863aabdf311e7dce26a79bccd60405160405180910390a35050506001808190555050505050565b600033905090565b6000806000806004600360149054906101000a900460ff1660ff1681548110611a9c577f4e487b7100000000000000000000000000000000000000000000000000000000600052603260045260246000fd5b90600052602060002090600702019050611ae48960056000600360149054906101000a900460ff1660ff1681526020019081526020016000205461207990919063ffffffff16565b81600201541015611b2a576040517f08c379a0000000000000000000000000000000000000000000000000000000008152600401611b21906130d3565b60405180910390fd5b86611beb57611ba48960066000600360149054906101000a900460ff1660ff16815260200190815260200160002060008b73ffffffffffffffffffffffffffffffffffffffff1673ffffffffffffffffffffffffffffffffffffffff1681526020019081526020016000205461207990919063ffffffff16565b81600301541015611bea576040517f08c379a0000000000000000000000000000000000000000000000000000000008152600401611be190613153565b60405180910390fd5b5b806001015492508060060154915086611c1d57611c088686611ff6565b15611c1c5780600001549250806005015491505b5b8060040160019054906101000a900460ff1615611ca9576000611c79670de0b6b3a7640000611c6b6305f5e100611c5d8e896120d790919063ffffffff16565b6120d790919063ffffffff16565b6120d790919063ffffffff16565b90506000611c85610e0d565b90506000819050611c9f818461215290919063ffffffff16565b9650505050611cbf565b611cbc89836120d790919063ffffffff16565b93505b8615611cca57600093505b611d028960056000600360149054906101000a900460ff1660ff1681526020019081526020016000205461207990919063ffffffff16565b60056000600360149054906101000a900460ff1660ff16815260200190815260200160002081905550611da08960066000600360149054906101000a900460ff1660ff16815260200190815260200160002060008b73ffffffffffffffffffffffffffffffffffffffff1673ffffffffffffffffffffffffffffffffffffffff1681526020019081526020016000205461207990919063ffffffff16565b60066000600360149054906101000a900460ff1660ff16815260200190815260200160002060008a73ffffffffffffffffffffffffffffffffffffffff1673ffffffffffffffffffffffffffffffffffffffff16815260200190815260200160002081905550611e0f8461219c565b600260009054906101000a900473ffffffffffffffffffffffffffffffffffffffff1673ffffffffffffffffffffffffffffffffffffffff1647604051611e5590612f75565b60006040518083038185875af1925050503d8060008114611e92576040519150601f19603f3d011682016040523d82523d6000602084013e611e97565b606091505b5050507f000000000000000000000000000000000000000000000000000000000000000073ffffffffffffffffffffffffffffffffffffffff166340c10f19898b6040518363ffffffff1660e01b8152600401611ef5929190612fdc565b600060405180830381600087803b158015611f0f57600080fd5b505af1158015611f23573d6000803e3d6000fd5b50505050505050505050505050565b60008060009054906101000a900473ffffffffffffffffffffffffffffffffffffffff169050816000806101000a81548173ffffffffffffffffffffffffffffffffffffffff021916908373ffffffffffffffffffffffffffffffffffffffff1602179055508173ffffffffffffffffffffffffffffffffffffffff168173ffffffffffffffffffffffffffffffffffffffff167f8be0079c531659141344cd1fd0a4f28419497f9722a3daafe3b4186f6b6457e060405160405180910390a35050565b6000803360405160200161200a9190612f5a565b604051602081830303815290604052805190602001209050612070848480806020026020016040519081016040528093929190818152602001838360200280828437600081840152601f19601f820116905080830192505050505050506007548361223d565b91505092915050565b60008082846120889190613457565b9050838110156120cd576040517f08c379a00000000000000000000000000000000000000000000000000000000081526004016120c4906130b3565b60405180910390fd5b8091505092915050565b6000808314156120ea576000905061214c565b600082846120f891906134de565b905082848261210791906134ad565b14612147576040517f08c379a000000000000000000000000000000000000000000000000000000000815260040161213e90613113565b60405180910390fd5b809150505b92915050565b600061219483836040518060400160405280601a81526020017f536166654d6174683a206469766973696f6e206279207a65726f000000000000815250612254565b905092915050565b803410156121df576040517f08c379a00000000000000000000000000000000000000000000000000000000081526004016121d690613193565b60405180910390fd5b8034111561223a573373ffffffffffffffffffffffffffffffffffffffff166108fc823461220d9190613538565b9081150290604051600060405180830381858888f19350505050158015612238573d6000803e3d6000fd5b505b50565b60008261224a85846122b7565b1490509392505050565b6000808311829061229b576040517f08c379a00000000000000000000000000000000000000000000000000000000081526004016122929190613071565b60405180910390fd5b50600083856122aa91906134ad565b9050809150509392505050565b60008082905060005b84518110156123285761231382868381518110612306577f4e487b7100000000000000000000000000000000000000000000000000000000600052603260045260246000fd5b6020026020010151612333565b915080806123209061367d565b9150506122c0565b508091505092915050565b600081831061234b57612346828461235e565b612356565b612355838361235e565b5b905092915050565b600082600052816020526040600020905092915050565b6000612388612383846133a8565b613377565b905080838252602082019050828560208602820111156123a757600080fd5b60005b858110156123d757816123bd888261248b565b8452602084019350602083019250506001810190506123aa565b5050509392505050565b60006123f46123ef846133d4565b613377565b9050808382526020820190508285602086028201111561241357600080fd5b60005b85811015612443578161242988826125bc565b845260208401935060208301925050600181019050612416565b5050509392505050565b600061246061245b84613400565b613377565b90508281526020810184848401111561247857600080fd5b61248384828561363b565b509392505050565b60008135905061249a81613795565b92915050565b600082601f8301126124b157600080fd5b81356124c1848260208601612375565b91505092915050565b60008083601f8401126124dc57600080fd5b8235905067ffffffffffffffff8111156124f557600080fd5b60208301915083602082028301111561250d57600080fd5b9250929050565b600082601f83011261252557600080fd5b81356125358482602086016123e1565b91505092915050565b60008135905061254d816137ac565b92915050565b600081519050612562816137ac565b92915050565b600081359050612577816137c3565b92915050565b600082601f83011261258e57600080fd5b813561259e84826020860161244d565b91505092915050565b6000815190506125b6816137da565b92915050565b6000813590506125cb816137f1565b92915050565b6000815190506125e0816137f1565b92915050565b6000813590506125f581613808565b92915050565b60008151905061260a8161381f565b92915050565b60006020828403121561262257600080fd5b60006126308482850161248b565b91505092915050565b6000806000806080858703121561264f57600080fd5b600061265d8782880161248b565b945050602061266e8782880161248b565b935050604061267f8782880161248b565b9250506060612690878288016125bc565b91505092959194509250565b600080600080608085870312156126b257600080fd5b60006126c08782880161248b565b94505060206126d18782880161248b565b93505060406126e2878288016125bc565b925050606085013567ffffffffffffffff8111156126ff57600080fd5b61270b8782880161257d565b91505092959194509250565b6000806040838503121561272a57600080fd5b60006127388582860161248b565b9250506020612749858286016125bc565b9150509250929050565b6000806040838503121561276657600080fd5b600083013567ffffffffffffffff81111561278057600080fd5b61278c85828601612514565b925050602083013567ffffffffffffffff8111156127a957600080fd5b6127b5858286016124a0565b9150509250929050565b6000602082840312156127d157600080fd5b60006127df84828501612553565b91505092915050565b6000602082840312156127fa57600080fd5b600061280884828501612568565b91505092915050565b60006020828403121561282357600080fd5b6000612831848285016125bc565b91505092915050565b6000806040838503121561284d57600080fd5b600061285b858286016125bc565b925050602061286c8582860161248b565b9150509250929050565b6000806000806060858703121561288c57600080fd5b600061289a878288016125bc565b94505060206128ab8782880161248b565b935050604085013567ffffffffffffffff8111156128c857600080fd5b6128d4878288016124ca565b925092505092959194509250565b600080600080600080600080610100898b0312156128ff57600080fd5b600061290d8b828c016125bc565b985050602061291e8b828c016125bc565b975050604061292f8b828c016125bc565b96505060606129408b828c016125bc565b95505060806129518b828c0161253e565b94505060a06129628b828c0161253e565b93505060c06129738b828c016125bc565b92505060e06129848b828c016125bc565b9150509295985092959890939650565b6000602082840312156129a657600080fd5b60006129b4848285016125e6565b91505092915050565b600080600080600060a086880312156129d557600080fd5b60006129e3888289016125fb565b95505060206129f4888289016125a7565b9450506040612a05888289016125d1565b9350506060612a16888289016125d1565b9250506080612a27888289016125fb565b9150509295509295909350565b60008060008060008060008060006101208a8c031215612a5357600080fd5b6000612a618c828d016125e6565b9950506020612a728c828d016125bc565b9850506040612a838c828d016125bc565b9750506060612a948c828d016125bc565b9650506080612aa58c828d016125bc565b95505060a0612ab68c828d0161253e565b94505060c0612ac78c828d0161253e565b93505060e0612ad88c828d016125bc565b925050610100612aea8c828d016125bc565b9150509295985092959850929598565b612b038161356c565b82525050565b612b1a612b158261356c565b6136c6565b82525050565b612b298161357e565b82525050565b612b388161358a565b82525050565b612b4781613594565b82525050565b612b5681613617565b82525050565b612b65816135c0565b82525050565b6000612b7682613430565b612b808185613446565b9350612b9081856020860161364a565b612b9981613777565b840191505092915050565b6000612bb1602683613446565b91507f4f776e61626c653a206e6577206f776e657220697320746865207a65726f206160008301527f64647265737300000000000000000000000000000000000000000000000000006020830152604082019050919050565b6000612c17601b83613446565b91507f536166654d6174683a206164646974696f6e206f766572666c6f7700000000006000830152602082019050919050565b6000612c57602783613446565b91507f7468697320706861736520646f6573206e6f7420616c6c6f772074686973207060008301527f75726368617365000000000000000000000000000000000000000000000000006020830152604082019050919050565b6000612cbd602883613446565b91507f61646472657373657320646f6573206e6f74206d6174636820746f6b656e734960008301527f64206c656e6774680000000000000000000000000000000000000000000000006020830152604082019050919050565b6000612d23602183613446565b91507f536166654d6174683a206d756c7469706c69636174696f6e206f766572666c6f60008301527f77000000000000000000000000000000000000000000000000000000000000006020830152604082019050919050565b6000612d89602083613446565b91507f4f776e61626c653a2063616c6c6572206973206e6f7420746865206f776e65726000830152602082019050919050565b6000612dc9602a83613446565b91507f796f752063616e206e6f7420627579206173206d616e79204e46547320696e2060008301527f74686973207068617365000000000000000000000000000000000000000000006020830152604082019050919050565b6000612e2f60008361343b565b9150600082019050919050565b6000612e49601083613446565b91507f5472616e73666572206661696c65642e000000000000000000000000000000006000830152602082019050919050565b6000612e89601683613446565b91507f4e65656420746f2073656e64206d6f7265204554482e000000000000000000006000830152602082019050919050565b6000612ec9600f83613446565b91507f4e6f7420616c6c6f774c697374656400000000000000000000000000000000006000830152602082019050919050565b6000612f09601f83613446565b91507f5265656e7472616e637947756172643a207265656e7472616e742063616c6c006000830152602082019050919050565b612f45816135ea565b82525050565b612f54816135f4565b82525050565b6000612f668284612b09565b60148201915081905092915050565b6000612f8082612e22565b9150819050919050565b6000602082019050612f9f6000830184612afa565b92915050565b6000606082019050612fba6000830186612afa565b612fc76020830185612afa565b612fd46040830184612f3c565b949350505050565b6000604082019050612ff16000830185612afa565b612ffe6020830184612f3c565b9392505050565b600060208201905061301a6000830184612b2f565b92915050565b60006020820190506130356000830184612b3e565b92915050565b60006020820190506130506000830184612b4d565b92915050565b600060208201905061306b6000830184612b5c565b92915050565b6000602082019050818103600083015261308b8184612b6b565b905092915050565b600060208201905081810360008301526130ac81612ba4565b9050919050565b600060208201905081810360008301526130cc81612c0a565b9050919050565b600060208201905081810360008301526130ec81612c4a565b9050919050565b6000602082019050818103600083015261310c81612cb0565b9050919050565b6000602082019050818103600083015261312c81612d16565b9050919050565b6000602082019050818103600083015261314c81612d7c565b9050919050565b6000602082019050818103600083015261316c81612dbc565b9050919050565b6000602082019050818103600083015261318c81612e3c565b9050919050565b600060208201905081810360008301526131ac81612e7c565b9050919050565b600060208201905081810360008301526131cc81612ebc565b9050919050565b600060208201905081810360008301526131ec81612efc565b9050919050565b60006020820190506132086000830184612f3c565b92915050565b600060c0820190506132236000830189612f3c565b6132306020830188612f3c565b61323d6040830187612b20565b61324a6060830186612b20565b6132576080830185612f3c565b61326460a0830184612f3c565b979650505050505050565b600060e082019050613284600083018a612f3c565b6132916020830189612f3c565b61329e6040830188612f3c565b6132ab6060830187612b20565b6132b86080830186612b20565b6132c560a0830185612f3c565b6132d260c0830184612f3c565b98975050505050505050565b6000610100820190506132f4600083018b612f3c565b613301602083018a612f3c565b61330e6040830189612f3c565b61331b6060830188612f3c565b6133286080830187612b20565b61333560a0830186612b20565b61334260c0830185612f3c565b61334f60e0830184612f3c565b9998505050505050505050565b60006020820190506133716000830184612f4b565b92915050565b6000604051905081810181811067ffffffffffffffff8211171561339e5761339d613748565b5b8060405250919050565b600067ffffffffffffffff8211156133c3576133c2613748565b5b602082029050602081019050919050565b600067ffffffffffffffff8211156133ef576133ee613748565b5b602082029050602081019050919050565b600067ffffffffffffffff82111561341b5761341a613748565b5b601f19601f8301169050602081019050919050565b600081519050919050565b600081905092915050565b600082825260208201905092915050565b6000613462826135ea565b915061346d836135ea565b9250827fffffffffffffffffffffffffffffffffffffffffffffffffffffffffffffffff038211156134a2576134a16136ea565b5b828201905092915050565b60006134b8826135ea565b91506134c3836135ea565b9250826134d3576134d2613719565b5b828204905092915050565b60006134e9826135ea565b91506134f4836135ea565b9250817fffffffffffffffffffffffffffffffffffffffffffffffffffffffffffffffff048311821515161561352d5761352c6136ea565b5b828202905092915050565b6000613543826135ea565b915061354e836135ea565b925082821015613561576135606136ea565b5b828203905092915050565b6000613577826135ca565b9050919050565b60008115159050919050565b6000819050919050565b60007fffffffff0000000000000000000000000000000000000000000000000000000082169050919050565b6000819050919050565b600073ffffffffffffffffffffffffffffffffffffffff82169050919050565b6000819050919050565b600060ff82169050919050565b600069ffffffffffffffffffff82169050919050565b600061362282613629565b9050919050565b6000613634826135ca565b9050919050565b82818337600083830152505050565b60005b8381101561366857808201518184015260208101905061364d565b83811115613677576000848401525b50505050565b6000613688826135ea565b91507fffffffffffffffffffffffffffffffffffffffffffffffffffffffffffffffff8214156136bb576136ba6136ea565b5b600182019050919050565b60006136d1826136d8565b9050919050565b60006136e382613788565b9050919050565b7f4e487b7100000000000000000000000000000000000000000000000000000000600052601160045260246000fd5b7f4e487b7100000000000000000000000000000000000000000000000000000000600052601260045260246000fd5b7f4e487b7100000000000000000000000000000000000000000000000000000000600052604160045260246000fd5b6000601f19601f8301169050919050565b60008160601b9050919050565b61379e8161356c565b81146137a957600080fd5b50565b6137b58161357e565b81146137c057600080fd5b50565b6137cc8161358a565b81146137d757600080fd5b50565b6137e3816135c0565b81146137ee57600080fd5b50565b6137fa816135ea565b811461380557600080fd5b50565b613811816135f4565b811461381c57600080fd5b50565b61382881613601565b811461383357600080fd5b5056fea264697066735822122059ef915dff175faa17c376fd0dd1cad9073622e307b5b3199ba629327b9131f464736f6c63430008000033",
  "immutableReferences": {
    "2999": [
      {
        "length": 32,
        "start": 3979
      },
      {
        "length": 32,
        "start": 4846
      },
      {
        "length": 32,
        "start": 7836
      }
    ]
  },
  "source": "// SPDX-License-Identifier: MIT\n\npragma solidity ^0.8.0;\n\nimport \"./AggregatorV3Interface.sol\";\nimport \"./Ownable.sol\";\nimport \"./ReentrancyGuard.sol\";\nimport \"./SafeMath.sol\";\nimport \"./IERC721Receiver.sol\";\nimport \"./MerkleProof.sol\";\n\ninterface IUtopia {\n    function mint(address to, uint256 qty) external;\n    function safeTransferFrom(address from, address to, uint256 tokenId) external;\n}\n\ninterface IERC20 {\n    function transfer(address to, uint256 amount) external returns (bool);\n}\n\ninterface IERC721 {\n    function transferFrom(address from, address to, uint256 tokenId) external;\n    function safeTransferFrom(address from, address to, uint256 tokenId) external;\n}\n\ncontract SaleUtopiaNFTV2 is Ownable, ReentrancyGuard, IERC721Receiver {\n    using SafeMath for uint256;\n\n    // treasuryAddr\n    address public treasuryAddr;\n    // Utopia SC collection\n    IUtopia public immutable utopia;\n    // Price Feed\n    AggregatorV3Interface internal priceFeed;\n    // Current Phase\n    uint8 public currentPhaseId;\n    // Info of each phase.\n    struct PhaseInfo {\n        uint256 priceInUSDPerNFT;\n        uint256 priceInUSDPerNFTWithoutWhiteList;\n        uint256 maxTotalSales;\n        uint256 maxSalesPerWallet;\n        bool whiteListRequired;\n        bool phasePriceInUSD;\n        uint256 priceInWeiPerNFT;\n        uint256 priceInWeiPerNFTWithoutWhiteList;\n    }\n    // Phases Info\n    PhaseInfo[] public phasesInfo;\n    // Phases Total Sales\n    mapping(uint256 => uint256) public phasesTotalSales;\n    // Phases Wallet Sales\n    mapping(uint256 => mapping(address => uint256)) public phasesWalletSales;\n    // AllowList\n    bytes32 public allowlistMerkleRoot;\n\n    event AddPhase(uint256 indexed _priceInUSDPerNFT, uint256 indexed _priceInUSDPerNFTWithoutWhiteList, uint256 _maxTotalSales, uint256 _maxSalesPerWallet, bool _whiteListRequired, bool _phasePriceInUSD, uint256 _priceInWeiPerNFT, uint256 _priceInWeiPerNFTWithoutWhiteList);\n    event EditPhase(uint8 indexed _phaseId, uint256 indexed _priceInUSDPerNFT, uint256 _priceInUSDPerNFTWithoutWhiteList, uint256 _maxTotalSales, uint256 _maxSalesPerWallet, bool _whiteListRequired, bool _phasePriceInUSD, uint256 _priceInWeiPerNFT, uint256 _priceInWeiPerNFTWithoutWhiteList);\n    event ChangeCurrentPhase(uint8 indexed _phaseId);\n    event ChangePriceFeedAddress(address indexed _priceFeedAddress);\n    event Buy(uint256 indexed quantity, address indexed to);\n    event BuyWithCreditCard(uint256 indexed quantity, address indexed to);\n\n    constructor(\n        IUtopia _utopia,\n        address _treasuryAddr,\n        address _priceFeedAddress,\n        uint8 _currentPhaseId\n    ) {\n        utopia = _utopia;\n        treasuryAddr = _treasuryAddr;\n        priceFeed = AggregatorV3Interface(_priceFeedAddress);\n        currentPhaseId = _currentPhaseId;\n    }\n\n    function onERC721Received(address, address, uint256, bytes memory) public virtual override returns (bytes4) {\n        return this.onERC721Received.selector;\n    }\n\n    modifier onlyAllowListed(bytes32[] calldata _merkleProof) {\n        PhaseInfo storage phase = phasesInfo[currentPhaseId];\n\n        if (phase.whiteListRequired) {\n            bool passMerkle = _checkMerkleProof(_merkleProof);\n            require(passMerkle, \"Not allowListed\");\n        }\n        _;\n    }\n\n    function _checkMerkleProof(bytes32[] calldata _merkleProof) internal virtual returns (bool) {\n        bytes32 leaf = keccak256(abi.encodePacked(msg.sender));\n        return MerkleProof.verify(_merkleProof, allowlistMerkleRoot, leaf);\n    }\n\n    function setCurrentPhase(uint8 _currentPhaseId) external onlyOwner {\n        currentPhaseId = _currentPhaseId;\n        emit ChangeCurrentPhase(_currentPhaseId);\n    }\n\n    function changePriceFeedAddress(address _priceFeedAddress) external onlyOwner {\n        priceFeed = AggregatorV3Interface(_priceFeedAddress);\n        emit ChangePriceFeedAddress(_priceFeedAddress);\n    }\n\n    function addPhase(uint256 _priceInUSDPerNFT, uint256 _priceInUSDPerNFTWithoutWhiteList, uint256 _maxTotalSales, uint256 _maxSalesPerWallet, bool _whiteListRequired, bool _phasePriceInUSD, uint256 _priceInWeiPerNFT, uint256 _priceInWeiPerNFTWithoutWhiteList) external onlyOwner {\n        phasesInfo.push(PhaseInfo({\n            priceInUSDPerNFT: _priceInUSDPerNFT,\n            priceInUSDPerNFTWithoutWhiteList: _priceInUSDPerNFTWithoutWhiteList,\n            maxTotalSales: _maxTotalSales,\n            maxSalesPerWallet: _maxSalesPerWallet,\n            whiteListRequired: _whiteListRequired,\n            phasePriceInUSD: _phasePriceInUSD,\n            priceInWeiPerNFT: _priceInWeiPerNFT,\n            priceInWeiPerNFTWithoutWhiteList: _priceInWeiPerNFTWithoutWhiteList\n        }));\n\n        emit AddPhase(_priceInUSDPerNFT, _priceInUSDPerNFTWithoutWhiteList, _maxTotalSales, _maxSalesPerWallet, _whiteListRequired, _phasePriceInUSD, _priceInWeiPerNFT, _priceInWeiPerNFTWithoutWhiteList);\n    }\n\n    function editPhase(uint8 _phaseId, uint256 _priceInUSDPerNFT, uint256 _priceInUSDPerNFTWithoutWhiteList, uint256 _maxTotalSales, uint256 _maxSalesPerWallet, bool _whiteListRequired, bool _phasePriceInUSD, uint256 _priceInWeiPerNFT, uint256 _priceInWeiPerNFTWithoutWhiteList) external onlyOwner {\n        phasesInfo[_phaseId].priceInUSDPerNFT = _priceInUSDPerNFT;\n        phasesInfo[_phaseId].priceInUSDPerNFTWithoutWhiteList = _priceInUSDPerNFTWithoutWhiteList;\n        phasesInfo[_phaseId].maxTotalSales = _maxTotalSales;\n        phasesInfo[_phaseId].maxSalesPerWallet = _maxSalesPerWallet;\n        phasesInfo[_phaseId].whiteListRequired = _whiteListRequired;\n        phasesInfo[_phaseId].phasePriceInUSD = _phasePriceInUSD;\n        phasesInfo[_phaseId].priceInWeiPerNFT = _priceInWeiPerNFT;\n        phasesInfo[_phaseId].priceInWeiPerNFTWithoutWhiteList = _priceInWeiPerNFTWithoutWhiteList;\n\n        emit EditPhase(_phaseId, _priceInUSDPerNFT, _priceInUSDPerNFTWithoutWhiteList, _maxTotalSales, _maxSalesPerWallet, _whiteListRequired, _phasePriceInUSD, _priceInWeiPerNFT, _priceInWeiPerNFTWithoutWhiteList);\n    }\n\n    function getLatestPrice() public view returns (int) {\n        (\n            ,\n            int price,\n            ,\n            ,\n\n        ) = priceFeed.latestRoundData();\n\n        return (\n            price\n        );\n    }\n\n    modifier callerIsUser() {\n        require(tx.origin == msg.sender, \"The caller is another contract\");\n        _;\n    }\n\n    function setAllowlistMerkleRoot(bytes32 _allowlistMerkleRoot) external onlyOwner {\n        allowlistMerkleRoot = _allowlistMerkleRoot;\n    }\n\n    function buyWithCreditCard(uint256 _quantity, address _to, bytes32[] calldata _merkleProof) external onlyOwner nonReentrant {\n        _buy(_quantity, _to, true, _merkleProof);\n        emit BuyWithCreditCard(_quantity, _to);\n    }\n\n    function buy(uint256 _quantity, address _to, bytes32[] calldata _merkleProof) external payable nonReentrant onlyAllowListed(_merkleProof) {\n        _buy(_quantity, _to, false, _merkleProof);\n        emit Buy(_quantity, _to);\n    }\n\n    function _buy(uint256 _quantity, address _to, bool _isCreditCardPayment, bytes32[] calldata _merkleProof) internal {\n        uint256 totalPrice = 0;\n        uint256 priceInUSD = 0;\n        uint256 priceInWei = 0;\n\n        PhaseInfo storage phase = phasesInfo[currentPhaseId];\n\n        require(phase.maxTotalSales >= phasesTotalSales[currentPhaseId].add(_quantity), \"this phase does not allow this purchase\");\n\n        if (!_isCreditCardPayment) {\n            require(phase.maxSalesPerWallet >= phasesWalletSales[currentPhaseId][_to].add(_quantity), \"you can not buy as many NFTs in this phase\");\n        }\n\n        priceInUSD = phase.priceInUSDPerNFTWithoutWhiteList;\n        priceInWei = phase.priceInWeiPerNFTWithoutWhiteList;\n\n        if (!_isCreditCardPayment) {\n            if (_checkMerkleProof(_merkleProof)) {\n                priceInUSD = phase.priceInUSDPerNFT;\n                priceInWei = phase.priceInWeiPerNFT;\n            }\n        }\n\n        if (phase.phasePriceInUSD) {\n            uint256 totalPriceInUSD = priceInUSD.mul(_quantity).mul(1e8).mul(1e18);\n\n            (\n            int ethPrice\n            ) = getLatestPrice();\n\n            uint256 ethPrice256 = uint256(ethPrice);\n            totalPrice = totalPriceInUSD.div(ethPrice256);\n        } else {\n            totalPrice = priceInWei.mul(_quantity);\n        }\n\n        if (_isCreditCardPayment) {\n            totalPrice = 0;\n        }\n\n        phasesTotalSales[currentPhaseId] = phasesTotalSales[currentPhaseId].add(_quantity);\n        phasesWalletSales[currentPhaseId][_to] = phasesWalletSales[currentPhaseId][_to].add(_quantity);\n\n        refundIfOver(totalPrice);\n        treasuryAddr.call{value: address(this).balance}(\"\");\n        utopia.mint(_to, _quantity);\n    }\n\n    function refundIfOver(uint256 price) private {\n        require(msg.value >= price, \"Need to send more ETH.\");\n        if (msg.value > price) {\n            payable(msg.sender).transfer(msg.value - price);\n        }\n    }\n\n    function setTreasury(address _treasuryAddr) external onlyOwner {\n        treasuryAddr = _treasuryAddr;\n    }\n\n    function withdrawMoney() external onlyOwner {\n        (bool success, ) = treasuryAddr.call{value: address(this).balance}(\"\");\n        require(success, \"Transfer failed.\");\n    }\n\n    function transferGuardedNfts(uint256[] memory tokensId, address[] memory addresses) external onlyOwner\n    {\n        require(\n            addresses.length == tokensId.length,\n            \"addresses does not match tokensId length\"\n        );\n\n        for (uint256 i = 0; i < addresses.length; ++i) {\n            utopia.safeTransferFrom(address(this), addresses[i], tokensId[i]);\n        }\n    }\n\n    function recoverERC20(address tokenAddress, uint256 tokenAmount) external virtual onlyOwner {\n        IERC20(tokenAddress).transfer(owner(), tokenAmount);\n    }\n\n    function recoverERC721TransferFrom(address nftAddress, address from, address to, uint256 tokenId) external virtual onlyOwner {\n        IERC721(nftAddress).transferFrom(from, to, tokenId);\n    }\n\n    function recoverERC721SafeTransferFrom(address nftAddress, address from, address to, uint256 tokenId) external virtual onlyOwner {\n        IERC721(nftAddress).safeTransferFrom(from, to, tokenId);\n    }\n\n}",
  "sourcePath": "/Applications/XAMPP/xamppfiles/htdocs/utopia/src/contracts/SaleUtopiaNFTV2.sol",
  "compiler": {
    "name": "solc",
    "version": "0.8.0+commit.c7dfd78e.Emscripten.clang"
  },
  "schemaVersion": "3.3.4",
  "updatedAt": "2022-11-24T13:58:20.579Z",
  "networkType": "ethereum",
  "devdoc": {
    "kind": "dev",
    "methods": {
      "owner()": {
        "details": "Returns the address of the current owner."
      },
      "renounceOwnership()": {
        "details": "Leaves the contract without owner. It will not be possible to call `onlyOwner` functions anymore. Can only be called by the current owner. NOTE: Renouncing ownership will leave the contract without an owner, thereby removing any functionality that is only available to the owner."
      },
      "transferOwnership(address)": {
        "details": "Transfers ownership of the contract to a new account (`newOwner`). Can only be called by the current owner."
      }
    },
    "version": 1
  },
  "userdoc": {
    "kind": "user",
    "methods": {},
    "version": 1
  }
}